100BANK0020105900X20105900            19990505  SCHUNTER      SAKO
100BANK0020106000X20106000            19990607  SCHUNTER      SAKO
100BANK0020107000X20107000            20000922  MORAK         SAKO
100BANK0020200000X20200000            19990212  OLBERT        SAKO
100BANK0020301000X20301000            19990212  OLBERT        SAKO
100BANK0020302000X20302000            19990212  OLBERT        SAKO
100BANK0020401000X20401000            19990212  OLBERT        SAKO
100BANK0020402000X20402000            19990212  OLBERT        SAKO
100BANK0020403000X20403000            19990212  OLBERT        SAKO
100BANK0020404000X20404000            19990505  SCHUNTER      SAKO
100BANK0020501000X20501000            19990212  OLBERT        SAKO
100BANK0020502000X20502000            19990212  OLBERT        SAKO
100BANK0020503000X20503000            19990212  OLBERT        SAKO
100BANK0020504100X20504100            20000922  MORAK         SAKO
100BANK0020504200X20504200            20000922  MORAK         SAKO
100BANK0020505000X20505000            20000922  MORAK         SAKO
100BANK0090000000X90000000            19990212  SCHUNTER      SAKO
100BANK0090101000X90101000            19990407  SCHUNTER      SAKO
100BANK0090102000X90102000            19990503  SCHUNTER      SAKO
100BANK0090103000X90103000            19990503  SCHUNTER      SAKO
100BANK0090104000X90104000            19990503  SCHUNTER      SAKO
100BANK0090105000X90105000            19990503  SCHUNTER      SAKO
100BANK0090201000X90201000            19990505  SCHUNTER      SAKO
100BANK0090202000X90202000            19990505  SCHUNTER      SAKO
100BANK0090301000X90301000            19990503  SCHUNTER      SAKO
100BANK0090302000X90302000            19990503  SCHUNTER      SAKO
100BANK0090303000X90303000            19990505  SCHUNTER      SAKO
100BANK0090304000X90304000            19990505  SCHUNTER      SAKO
100BANK0090305000X90305000            19990505  SCHUNTER      SAKO
100BANK0090306000X90306000            19990505  SCHUNTER      SAKO
100CA200000230057X0000230057          20060108  LCHAMDONDOG   ALL
100CA200000230058X0000230058          20060108  LCHAMDONDOG   ALL
100CA200000900000X0000900000          20060117  D020150       ALL
100CA200021122000X0021122000          20030907  ANDERSONK     ALL
100CAAU0000111000X0000111000          20050708  I021815       BS
100CAAU0000113000X0000113000          20050708  I021815       BSLF
100CAAU0000113001X0000113001          20050708  I021815       BSLF
100CAAU0000113002X0000113002          20050708  I021815       BSLF
100CAAU0000113003X0000113003          20050708  I021815       BSLF
100CAAU0000113004X0000113004          20081117  I021815       BSLF
100CAAU0000113005X0000113005          20050708  I021815       BSLF
100CAAU0000113006X0000113006          20081118  I021815       BSLF
100CAAU0000113100X0000113100          20050829  I021815       BSLF
100CAAU0000113101X0000113101          20050829  I021815       BSLF
100CAAU0000113102X0000113102          20050829  I021815       BSLF
100CAAU0000113104X0000113104          20081118  I021815       BSLF
100CAAU0000113200X0000113200          20050829  I021815       BSLF
100CAAU0000113201X0000113201          20050829  I021815       BSLF
100CAAU0000113202X0000113202          20050829  I021815       BSLF
100CAAU0000113204X0000113204          20081118  I021815       BSLF
100CAAU0000113300X0000113300          20050829  I021815       BSLF
100CAAU0000113301X0000113301          20050829  I021815       BSLF
100CAAU0000113302X0000113302          20050829  I021815       BSLF
100CAAU0000113304X0000113304          20081118  I021815       BSLF
100CAAU0000113500X0000113500          20081121  I021815       BSLF
100CAAU0000113501X0000113501          20081121  I021815       BSLF
100CAAU0000113502X0000113502          20081121  I021815       BSLF
100CAAU0000113503X0000113503          20081121  I021815       BSLF
100CAAU0000113504X0000113504          20081121  I021815       BSLF
100CAAU0000113505X0000113505          20081121  I021815       BSLF
100CAAU0000113506X0000113506          20081121  I021815       BSLF
100CAAU0000114000X0000114000          20051006  I021815       BS
100CAAU0000114002X0000114002          20051006  I021815       BS
100CAAU0000114006X0000114006          20051006  I021815       BS
100CAAU0000114100X0000114100          20051006  I021815       BS
100CAAU0000114102X0000114102          20051006  I021815       BS
100CAAU0000114106X0000114106          20051006  I021815       BS
100CAAU0000114200X0000114200          20051006  I021815       BS
100CAAU0000114202X0000114202          20051006  I021815       BS
100CAAU0000114206X0000114206          20051006  I021815       BS
100CAAU0000114300X0000114300          20051006  I021815       BS
100CAAU0000114302X0000114302          20051006  I021815       BS
100CAAU0000114306X0000114306          20051006  I021815       BS
100CAAU0000114900X0000114900          20051006  I021815       BS
100CAAU0000114902X0000114902          20051006  I021815       BS
100CAAU0000114906X0000114906          20051006  I021815       BS
100CAAU0000115000X0000115000          20051006  I021815       BS
100CAAU0000115001X0000115001          20081118  I021815       BS
100CAAU0000115002X0000115002          20051006  I021815       BS
100CAAU0000115004X0000115004          20081118  I021815       BS
100CAAU0000115006X0000115006          20051006  I021815       BS
100CAAU0000115100X0000115100          20051006  I021815       BS
100CAAU0000116000X0000116000          20081118  I021815       BSLF
100CAAU0000116001X0000116001          20081120  I021815       BSLF
100CAAU0000116002X0000116002          20081118  I021815       BSLF
100CAAU0000116100X0000116100          20081119  I021815       BSLF
100CAAU0000116101X0000116101          20081120  I021815       BSLF
100CAAU0000116200X0000116200          20081119  I021815       BSLF
100CAAU0000116201X0000116201          20081120  I021815       BSLF
100CAAU0000116300X0000116300          20081119  I021815       BSLF
100CAAU0000116301X0000116301          20081120  I021815       BSLF
100CAAU0000116500X0000116500          20081121  I021815       BSLF
100CAAU0000116501X0000116501          20081121  I021815       BSLF
100CAAU0000116502X0000116502          20081121  I021815       BSLF
100CAAU0000117500X0000117500          20081119  I021815       BSLF
100CAAU0000117550X0000117550          20081119  I021815       BSLF
100CAAU0000117551X0000117551          20081119  I021815       BSLF
100CAAU0000117552X0000117552          20081119  I021815       BSLF
100CAAU0000119900X0000119900          20051006  I021815       BS
100CAAU0000119910X0000119910          20061126  I021815       BS
